{
  "contractName": "Faucet",
  "abi": [
    {
      "inputs": [
        {
          "internalType": "address",
          "name": "_tokenAddress",
          "type": "address"
        },
        {
          "internalType": "uint256",
          "name": "_amountMax",
          "type": "uint256"
        }
      ],
      "stateMutability": "nonpayable",
      "type": "constructor"
    },
    {
      "inputs": [],
      "name": "amountMax",
      "outputs": [
        {
          "internalType": "uint256",
          "name": "",
          "type": "uint256"
        }
      ],
      "stateMutability": "view",
      "type": "function",
      "constant": true
    },
    {
      "inputs": [],
      "name": "owner",
      "outputs": [
        {
          "internalType": "address",
          "name": "",
          "type": "address"
        }
      ],
      "stateMutability": "view",
      "type": "function",
      "constant": true
    },
    {
      "inputs": [],
      "name": "tokenAddress",
      "outputs": [
        {
          "internalType": "address",
          "name": "",
          "type": "address"
        }
      ],
      "stateMutability": "view",
      "type": "function",
      "constant": true
    },
    {
      "inputs": [
        {
          "internalType": "address",
          "name": "_tokenAddress",
          "type": "address"
        }
      ],
      "name": "changeTokenAddress",
      "outputs": [],
      "stateMutability": "nonpayable",
      "type": "function"
    },
    {
      "inputs": [
        {
          "internalType": "uint256",
          "name": "_amountMax",
          "type": "uint256"
        }
      ],
      "name": "changeAmountMax",
      "outputs": [],
      "stateMutability": "nonpayable",
      "type": "function"
    },
    {
      "inputs": [],
      "name": "amountOnWallet",
      "outputs": [
        {
          "internalType": "uint256",
          "name": "",
          "type": "uint256"
        }
      ],
      "stateMutability": "view",
      "type": "function",
      "constant": true
    },
    {
      "inputs": [],
      "name": "amountOnFaucet",
      "outputs": [
        {
          "internalType": "uint256",
          "name": "",
          "type": "uint256"
        }
      ],
      "stateMutability": "view",
      "type": "function",
      "constant": true
    },
    {
      "inputs": [
        {
          "internalType": "uint256",
          "name": "_amount",
          "type": "uint256"
        }
      ],
      "name": "withdrawSome",
      "outputs": [],
      "stateMutability": "nonpayable",
      "type": "function"
    },
    {
      "inputs": [],
      "name": "withdrawAll",
      "outputs": [],
      "stateMutability": "nonpayable",
      "type": "function"
    },
    {
      "inputs": [
        {
          "internalType": "uint256",
          "name": "_amount",
          "type": "uint256"
        }
      ],
      "name": "deposit",
      "outputs": [],
      "stateMutability": "nonpayable",
      "type": "function"
    }
  ],
  "bytecode": "0x608060405234801561001057600080fd5b5060405161076138038061076183398101604081905261002f91610066565b60008054336001600160a01b031991821617909155600180549091166001600160a01b0393909316929092179091556002556100a0565b6000806040838503121561007957600080fd5b82516001600160a01b038116811461009057600080fd5b6020939093015192949293505050565b6106b2806100af6000396000f3fe608060405234801561001057600080fd5b506004361061009e5760003560e01c8063ae9b051c11610066578063ae9b051c1461011a578063b6b55f251461012d578063bb8f34a414610140578063c2d2373114610148578063c9cda91f1461015057600080fd5b8063853828b6146100a35780638da5cb5b146100ad5780638ecb2d86146100dd5780639d76ea58146100f45780639e6b333914610107575b600080fd5b6100ab610163565b005b6000546100c0906001600160a01b031681565b6040516001600160a01b0390911681526020015b60405180910390f35b6100e660025481565b6040519081526020016100d4565b6001546100c0906001600160a01b031681565b6100ab610115366004610584565b61027e565b6100ab610128366004610584565b6102ad565b6100ab61013b366004610584565b610435565b6100e6610494565b6100e6610507565b6100ab61015e36600461059d565b610538565b6000546001600160a01b031633146101965760405162461bcd60e51b815260040161018d906105cd565b60405180910390fd5b6001546040516370a0823160e01b81523060048201526001600160a01b039091169063a9059cbb90339083906370a0823190602401602060405180830381865afa1580156101e8573d6000803e3d6000fd5b505050506040513d601f19601f8201168201806040525081019061020c91906105f4565b6040516001600160e01b031960e085901b1681526001600160a01b03909216600483015260248201526044016020604051808303816000875af1158015610257573d6000803e3d6000fd5b505050506040513d601f19601f8201168201806040525081019061027b919061060d565b50565b6000546001600160a01b031633146102a85760405162461bcd60e51b815260040161018d906105cd565b600255565b6002546001546040516370a0823160e01b815233600482015283916001600160a01b0316906370a0823190602401602060405180830381865afa1580156102f8573d6000803e3d6000fd5b505050506040513d601f19601f8201168201806040525081019061031c91906105f4565b6103269190610645565b11158061033d57506000546001600160a01b031633145b61039d5760405162461bcd60e51b815260206004820152602b60248201527f566f7573206e6520706f7576657a2070617320656e20706f737365646572207060448201526a06c757320646520313030360ac1b606482015260840161018d565b6001546001600160a01b031663a9059cbb336103c184670de0b6b3a764000061065d565b6040516001600160e01b031960e085901b1681526001600160a01b03909216600483015260248201526044015b6020604051808303816000875af115801561040d573d6000803e3d6000fd5b505050506040513d601f19601f82011682018060405250810190610431919061060d565b5050565b6001546001600160a01b03166323b872dd333061045a85670de0b6b3a764000061065d565b6040516001600160e01b031960e086901b1681526001600160a01b03938416600482015292909116602483015260448201526064016103ee565b6001546040516370a0823160e01b81523360048201526000916001600160a01b0316906370a08231906024015b602060405180830381865afa1580156104de573d6000803e3d6000fd5b505050506040513d601f19601f8201168201806040525081019061050291906105f4565b905090565b6001546040516370a0823160e01b81523060048201526000916001600160a01b0316906370a08231906024016104c1565b6000546001600160a01b031633146105625760405162461bcd60e51b815260040161018d906105cd565b600180546001600160a01b0319166001600160a01b0392909216919091179055565b60006020828403121561059657600080fd5b5035919050565b6000602082840312156105af57600080fd5b81356001600160a01b03811681146105c657600080fd5b9392505050565b6020808252600d908201526c2737ba103a34329037bbb732b960991b604082015260600190565b60006020828403121561060657600080fd5b5051919050565b60006020828403121561061f57600080fd5b815180151581146105c657600080fd5b634e487b7160e01b600052601160045260246000fd5b600082198211156106585761065861062f565b500190565b60008160001904831182151516156106775761067761062f565b50029056fea26469706673582212200c32b66cc26314d103009379bae275bac0c5b4a26f279a1b92dcff55d9958b3564736f6c634300080a0033",
  "immutableReferences": {},
  "source": "// SPDX-License-Identifier: MIT\r\npragma solidity ^0.8.9;\r\n\r\nimport \"@openzeppelin/contracts/token/ERC20/IERC20.sol\";\r\nimport \"@openzeppelin/contracts/utils/math/SafeMath.sol\";\r\n\r\ncontract Faucet {\r\n    address public owner;\r\n    address public tokenAddress;\r\n    uint public amountMax;\r\n\r\n    modifier onlyOwner {\r\n        require(msg.sender == owner, \"Not the owner\");\r\n        _;\r\n    }\r\n\r\n    constructor(address _tokenAddress, uint _amountMax) {\r\n        owner = msg.sender;\r\n        tokenAddress = _tokenAddress;\r\n        amountMax = _amountMax;\r\n    }\r\n\r\n    function changeTokenAddress(address _tokenAddress) onlyOwner public {\r\n        tokenAddress = _tokenAddress;\r\n    }\r\n\r\n    function changeAmountMax(uint _amountMax) onlyOwner public {\r\n        amountMax = _amountMax;\r\n    }\r\n\r\n    function amountOnWallet() public view returns(uint) {\r\n        return IERC20(tokenAddress).balanceOf(msg.sender);\r\n    }\r\n\r\n    function amountOnFaucet() public view returns(uint) {\r\n        return IERC20(tokenAddress).balanceOf(address(this));\r\n    }\r\n\r\n    function withdrawSome(uint256 _amount) public {\r\n        require(\r\n            (IERC20(tokenAddress).balanceOf(msg.sender)+_amount <= amountMax) || (msg.sender == owner),\r\n            \"Vous ne pouvez pas en posseder plus de 1000\"\r\n        );\r\n        IERC20(tokenAddress).transfer(msg.sender, _amount * 10**18);\r\n    }\r\n\r\n    function withdrawAll() onlyOwner public {\r\n        IERC20(tokenAddress).transfer(msg.sender, IERC20(tokenAddress).balanceOf(address(this)));\r\n    }\r\n    \r\n    function deposit(uint _amount) public {\r\n        IERC20(tokenAddress).transferFrom(msg.sender,address(this),_amount * 10**18);\r\n    }\r\n}",
  "sourcePath": "C:\\Users\\mrpsy\\Documents\\Enseignement\\2023-2024\\Dev Web3\\TP Faucet Web\\faucet-app\\contracts\\faucet.sol",
  "compiler": {
    "name": "solc",
    "version": "0.8.10+commit.fc410830.Emscripten.clang"
  },
  "schemaVersion": "3.4.10",
  "updatedAt": "2023-10-03T09:24:50.416Z",
  "networkType": "ethereum",
  "devdoc": {
    "kind": "dev",
    "methods": {},
    "version": 1
  },
  "userdoc": {
    "kind": "user",
    "methods": {},
    "version": 1
  }
}